:0300000002097979
:0C097900787FE4F6D8FD7581410209C0CA
:100C190020487200504D00414D0054696D65200017
:060C290044617465200027
:100AC900081700306202041119100215D0D1011F54
:100AD90000010800072B534D5457544653072475FA
:100AE9006F7565687261021200000210000002331E
:020AF9000000FB
:0B0C4400D2C1D2C0759340439301223F
:03004300020800B0
:10080000C0E0C0D075D000C000C007AF94EF24F0A6
:10081000603724F8604724F0604824E8606B24F8CF
:10082000606C24F8606A24F8606424506003020855
:10083000C40511E51170020510142415F8E6F595AC
:100840005393C7751F000208CA0511E51170020510
:1008500010142415F8E6F595751F00802575950090
:100860008020E50F7021C3E5139408E5126480949D
:100870008050460513E51370020512142417F8E69C
:10088000F5955393C7804380305393C780208034BD
:10089000C3E5349407E5336480948050165393C7BE
:1008A0000534E53470020533142435F8A6954393D6
:1008B0000480177533007534005393C74393107544
:1008C0000C0180065393C7439310D007D000D0D0BB
:0308D000D0E03243
:100C0100D2B343A88443B80443B70443B102E4F523
:080C1100B275B302438804220E
:03001300020C4F8D
:070C4F007508015388FB3218
:040C61004393202277
:100B81007F38120BE3120AFC7F0E120BE3120AFCF0
:100B91007F01120BE3120AFC7F80120BE37F647E5C
:040BA10000020B0043
:100BC50075A0FFC280D281C2827F057E00120B0014
:0E0BD500D28230A706C282D28280F7C282226C
:100BE3008F3C120BC5853CA0C280C281D2827F019B
:0E0BF3007E00120B00C2827F017E00020B000A
:100A9300051F7435251FF8E6FFC4540FF532EF54D4
:080AA3000FF514AF32120C5CD8
:100AAB008F41120BC58541A0D280C281D2827F01BA
:0E0ABB007E00120B00C2827F017E00020B0043
:060B56008B3C8A3D893E44
:100B5C00E4F53FF540AB3CAA3DA93E854082853F7C
:100B6C0083120B29FF600D120AAB0540E54070E5BE
:040B7C00053F80E1D0
:010B80002252
:040AFC007F647E0095
:100B0000D3EF9400EE64809480401DE4FDEDFB3350
:100B100095E0FAC3EB9405EA6480948050030D805D
:080B2000ECEF1F70DB1E80D812
:010B280022AA
:050C5C00EF2430FF222F
:1008D3007F85120BE3E4F51FC37402951FFF2435D4
:1008E300F8E6FEC45401F532EE540FF51474352FB7
:1008F300F8E6FFC4131354037520005401F521EFE8
:10090300C4135407750A005401F50B120AA6AF1459
:10091300120C5C120AAB7F3A120AAB051FC37402B6
:10092300951F2435120A99AF14120C5C120AAB7F7F
:100933003A120AAB051FC37402951F2435F8E6FF6C
:10094300C45407120A9FAF14120C5C120AAB051FA2
:10095300E521452070087BFF7A0C79198014E50B9B
:100963006401450A7BFF70067A0C791D80047A0CBA
:060973007920120B562250
:100A05007FC5120BE37435251FF8E65407F532242C
:100A15002BF8E6FF120AAB74242532F8E6FF120A1A
:100A2500AB7F20120AAB120A93AF14120C5C120AA8
:100A3500AB7F2F120AAB120A93AF14120C5C120A89
:100A4500AB7F2F120AAB120A93AF14120C5C120A79
:040A5500AB051F22AC
:060C56001208D3020A059A
:100C2F00E4F50CF510F511F512F513F50F120C6133
:050C3F00E50C60FC2241
:100BA500E4F50CF510F511F533F534750F01120C5C
:100BB50061E50C60FCE4F50C120C61E50C60FC22AF
:100A5900E4F5A0120B81120C01120C44120C2F7F29
:100A690080120BE37BFF7A0C7923120B567FC0129D
:100A79000BE37BFF7A0C7929120B56E50860FCE43D
:0A0A8900F508120BA5120C5680F1BF
:10098500020A59E493A3F8E493A34003F68001F225
:1009950008DFF48029E493A3F85407240CC8C33373
:1009A500C4540F4420C8834004F456800146F6DF42
:1009B500E4800B0102040810204080900AC9E47EFF
:1009C500019360BCA3FF543F30E509541FFEE49337
:1009D500A360010ECF54C025E060A840B8E493A3FE
:1009E500FAE493A3F8E493A3C8C582C8CAC583CA29
:1009F500F0A3C8C582C8CAC583CADFE9DEE780BEE1
:010AFB0000FA
:100B2900BB010CE58229F582E5833AF583E0225081
:100B390006E92582F8E622BBFE06E92582F8E222CB
:0D0B4900E58229F582E5833AF583E49322E5
:00000001FF
