:03000000020BDD13
:0C0BDD00787FE4F6D8FD75813B020C2403
:020D9D003A001A
:100CC500C10006210000000000000D27414443201B
:100CD5006368616E6E656C2D000434206D560003EB
:040CE50038000000D3
:100C6900E4F5A0C282C280C2817F38FE120D7612DD
:100C79000CEA7F067E00120D76120CEA7F0C7E00CC
:100C8900120D76120CEA7F017E00120D76120CEA23
:070C99007F807E00020D7652
:040CEA007F047E0005
:100CEE00E4FDFCC3ED9FEC9E5015E4FBFA0BBB003C
:0F0CFE00010ABA01F8BB7EF50DBD00010C80E4C0
:010D0D0022C3
:100B37008E0E8F0F8B108A1189127C277D10120A57
:100B470012EF24301209DEAE0EAF0F7C277D101294
:100B57000A127E037FE8CFCDCFCECCCE120A12EF9A
:100B67002430AB10AA11A9129000011209F0AE0EA1
:100B7700AF0F7C037DE8120A127E007F64CFCDCFD2
:100B8700CECCCE120A12EF2430AB10AA11A91290C4
:100B970000021209F0AE0EAF0F7C007D64120A123C
:100BA7007E007F0ACFCDCFCECCCE120A12EF2430F3
:100BB700AB10AA11A9129000031209F0AE0EAF0FE5
:100BC7007C007D0A120A12ED2430AB10AA11A9127B
:060BD7009000040209F089
:100D7600C280C281D2828FA07F0A7E00120CEEC290
:020D86008222C7
:100D8800D280C281D2828FA07F0A7E00120CEEC26E
:020D98008222B5
:100CA0008B0E8A0F8910AB0EAA0FA9101209C5600E
:100CB000130510E5107002050F14F91209C5FF1293
:050CC0000D8880E22216
:100D4A0043C31043C32043C30353C37F53C3F34373
:090D5A00B10443A88043C3402208
:040D0E00AD07AC067B
:100D1200C2008CC53000FDAF3BC2008DC53000FD66
:0B0D2200EFFE7C00E4253BFFEC3EFEF2
:010D2D0022A3
:03004B00020D2E75
:100D2E00C0E0C0D075D000C007AFC4EF24807005FE
:0C0D3E0085C53BD200D007D0D0D0E032F9
:030D9A00D29422CE
:100D6300C294120D0ED294EF7806CEC313CE13D8CD
:020D7300F9FF86
:010D7500225B
:100A7500750800750908E4F50AF50BF50CF50D1276
:100A85000D4A120D9A120C69C3E509940EE5086426
:100A95008094804003020B367B007A007938AF09D9
:100AA500AE08120B37E5097F00C454F0FE120D6342
:100AB5008E0A8F0BAC0AAD0BE412090B7B9D7A7382
:100AC500794E78401208001209448E0A8F0BE50B07
:100AD50024FFFFE50A34FFFE7B007A007921120B23
:100AE500377F807E00120D767B007A007927120C05
:100AF500A07B007A007938120CA07BFF7A0D799DD6
:100B0500120CA07FC07E00120D767B007A00792141
:100B1500120CA07B007A007934120CA07FD07E07DE
:100B2500120CEE0509E5096003020A8D0508020AA3
:010B35008D32
:010B3600229C
:10080000EC4D6011E8497017ED33EC3304600DE4F2
:10081000FCFFFEFD22E933E8330470F80209B01250
:10082000097B58046009E4CC248150062850090251
:1008300009BA2840030209B7C0E0EB4A7044B98006
:1008400006D0E0FB0209A6EF4E701CBD8008EBFF4E
:10085000EAFEE9FD80EBE98DF0A4FEE5F00208E98F
:10086000E9CDF9EAFEEBFFEF89F0A4FCE5F0CE89D3
:10087000F0A42EFFE435F0CD89F0A42DFEE435F090
:100880008067EF4E7005BD80D780C3EF8BF0A4ACBE
:10089000F0EE8BF0A42CFCE435F0F8EF8AF0A42CF9
:1008A000E5F038FCE433CB8DF0A42CFCE5F03BF80C
:1008B000EE8AF0A42CFCE5F038F8E433CF89F0A4FC
:1008C0002CFCE5F038CF3400CE89F0A42FFFE5F002
:1008D0003EFEE433C98DF0A42EFEE5F039CD8AF05A
:1008E000A42FFFE5F03EFEE43DFD33D0E0FB5007D2
:1008F0000BBB000F0209BAEC2CFCEF33FFEE33FE0A
:06090000ED33FD02099237
:1009060075F020800E75F010800575F0087D007E6C
:10091600007F003392D530D503120A67EC334010BE
:10092600EF33FFEE33FEED33FDEC33FCD5F0ED2275
:0E093600E5F0247EA2D513CC92E7CDCEFF22B1
:10094400EDD2E7CD33EC3392D524814006E4FFFEAB
:10095400FDFC22FCE4CFCECDCC24E0501174FF800A
:10096400EDC3CC13CCCD13CDCE13CECF13CF0470A7
:07097400F030D5DE020A6736
:10097B00E9D2E7C933E833F892D5EDD2E7CD33ECC2
:07098B0033FC5002B2D5223B
:10099200EC30E7100FBF000C0EBE00080DBD0004C6
:1009A2000BEB6014A2D5EB13FCED92E7FD2274FF72
:1009B200FCFDFEFF22E480F8A2D574FF13FC7D80CB
:0309C200E480EFDF
:100BE900020A75E493A3F8E493A34003F68001F2A3
:100BF90008DFF48029E493A3F85407240CC8C3330D
:100C0900C4540F4420C8834004F456800146F6DFDB
:100C1900E4800B0102040810204080900CC5E47E9A
:100C2900019360BCA3FF543F30E509541FFEE493D0
:100C3900A360010ECF54C025E060A840B8E493A397
:100C4900FAE493A3F8E493A3C8C582C8CAC583CAC2
:100C5900F0A3C8C582C8CAC583CADFE9DEE780BE7A
:010CE900000A
:1009C500BB010689828A83E0225002E722BBFE0230
:0909D500E32289828A83E4932263
:1009DE00BB010689828A83F0225002F722BBFE01F8
:0209EE00F322F2
:1009F000F8BB010DE58229F582E5833AF583E8F03D
:100A0000225006E92582C8F622BBFE05E92582C8E8
:020A1000F222D0
:100A1200BC000BBE0029EF8DF084FFADF022E4CCC8
:100A2200F875F008EF2FFFEE33FEEC33FCEE9DEC91
:100A3200984005FCEE9DFE0FD5F0E9E4CEFD22EDD7
:100A4200F8F5F0EE8420D21CFEADF075F008EF2F21
:100A5200FFED33FD4007985006D5F0F222C398FD12
:050A62000FD5F0EA22AF
:0E0A6700C3E49FFFE49EFEE49DFDE49CFC22A0
:00000001FF
